{
  "contractName": "InnovationDay",
  "abi": [
    {
      "constant": true,
      "inputs": [],
      "name": "name",
      "outputs": [
        {
          "name": "",
          "type": "string"
        }
      ],
      "payable": false,
      "stateMutability": "view",
      "type": "function"
    },
    {
      "constant": true,
      "inputs": [],
      "name": "symbol",
      "outputs": [
        {
          "name": "",
          "type": "string"
        }
      ],
      "payable": false,
      "stateMutability": "view",
      "type": "function"
    },
    {
      "inputs": [],
      "payable": false,
      "stateMutability": "nonpayable",
      "type": "constructor"
    },
    {
      "anonymous": false,
      "inputs": [],
      "name": "ContractDeployed",
      "type": "event"
    },
    {
      "anonymous": false,
      "inputs": [],
      "name": "TokenSpent",
      "type": "event"
    },
    {
      "constant": false,
      "inputs": [
        {
          "name": "code",
          "type": "string"
        }
      ],
      "name": "allowCode",
      "outputs": [
        {
          "name": "success",
          "type": "bool"
        }
      ],
      "payable": false,
      "stateMutability": "nonpayable",
      "type": "function"
    },
    {
      "constant": false,
      "inputs": [
        {
          "name": "hashedcode",
          "type": "bytes32"
        }
      ],
      "name": "allowHashedCode",
      "outputs": [
        {
          "name": "success",
          "type": "bool"
        }
      ],
      "payable": false,
      "stateMutability": "nonpayable",
      "type": "function"
    },
    {
      "constant": true,
      "inputs": [
        {
          "name": "hashedcode",
          "type": "bytes32"
        }
      ],
      "name": "allowedCode",
      "outputs": [
        {
          "name": "success",
          "type": "bool"
        }
      ],
      "payable": false,
      "stateMutability": "view",
      "type": "function"
    },
    {
      "constant": false,
      "inputs": [
        {
          "name": "tokenOwner",
          "type": "address"
        },
        {
          "name": "tokens",
          "type": "uint256"
        }
      ],
      "name": "addTokens",
      "outputs": [
        {
          "name": "success",
          "type": "bool"
        }
      ],
      "payable": false,
      "stateMutability": "nonpayable",
      "type": "function"
    },
    {
      "constant": false,
      "inputs": [
        {
          "name": "_price",
          "type": "uint256"
        }
      ],
      "name": "setPrice",
      "outputs": [],
      "payable": false,
      "stateMutability": "nonpayable",
      "type": "function"
    },
    {
      "constant": false,
      "inputs": [
        {
          "name": "_price",
          "type": "uint256"
        }
      ],
      "name": "setPriceInEther",
      "outputs": [],
      "payable": false,
      "stateMutability": "nonpayable",
      "type": "function"
    },
    {
      "constant": false,
      "inputs": [],
      "name": "buyToken",
      "outputs": [
        {
          "name": "amount",
          "type": "uint256"
        }
      ],
      "payable": true,
      "stateMutability": "payable",
      "type": "function"
    },
    {
      "constant": false,
      "inputs": [
        {
          "name": "hashedcode",
          "type": "bytes32"
        }
      ],
      "name": "spendToken",
      "outputs": [
        {
          "name": "success",
          "type": "bool"
        }
      ],
      "payable": false,
      "stateMutability": "nonpayable",
      "type": "function"
    },
    {
      "constant": true,
      "inputs": [
        {
          "name": "hashedcode",
          "type": "bytes32"
        }
      ],
      "name": "codeUsedByUser",
      "outputs": [
        {
          "name": "used",
          "type": "bool"
        }
      ],
      "payable": false,
      "stateMutability": "view",
      "type": "function"
    },
    {
      "constant": true,
      "inputs": [
        {
          "name": "tokenOwner",
          "type": "address"
        }
      ],
      "name": "balanceOf",
      "outputs": [
        {
          "name": "balance",
          "type": "uint256"
        }
      ],
      "payable": false,
      "stateMutability": "view",
      "type": "function"
    }
  ],
  "bytecode": "0x608060405234801561001057600080fd5b50336000806101000a81548173ffffffffffffffffffffffffffffffffffffffff021916908373ffffffffffffffffffffffffffffffffffffffff1602179055506040805190810160405280600a81526020017f494e4e4f564154494f4e000000000000000000000000000000000000000000008152506001908051906020019061009c92919061011a565b506040805190810160405280600381526020017f494e4e0000000000000000000000000000000000000000000000000000000000815250600290805190602001906100e892919061011a565b507fdaf2a119a79dac8445fdc10627116c03f4b0ffb5cf1aee5223ac18a7453e631f60405160405180910390a16101bf565b828054600181600116156101000203166002900490600052602060002090601f016020900481019282601f1061015b57805160ff1916838001178555610189565b82800160010185558215610189579182015b8281111561018857825182559160200191906001019061016d565b5b509050610196919061019a565b5090565b6101bc91905b808211156101b85760008160009055506001016101a0565b5090565b90565b610d7e806101ce6000396000f3006080604052600436106100ba576000357c0100000000000000000000000000000000000000000000000000000000900463ffffffff16806306fdde03146100bf5780631d8f3c851461014f57806342fa5b3a146101985780635fd11c76146101c55780636039fbdb1461020e57806370a082311461027357806391b7f5ed146102ca57806395d89b41146102f75780639c81e15c14610387578063a03e29dc146103d0578063a482171914610451578063b78d9c131461046f575b600080fd5b3480156100cb57600080fd5b506100d46104b8565b6040518080602001828103825283818151815260200191508051906020019080838360005b838110156101145780820151818401526020810190506100f9565b50505050905090810190601f1680156101415780820380516001836020036101000a031916815260200191505b509250505060405180910390f35b34801561015b57600080fd5b5061017e6004803603810190808035600019169060200190929190505050610556565b604051808215151515815260200191505060405180910390f35b3480156101a457600080fd5b506101c360048036038101908080359060200190929190505050610715565b005b3480156101d157600080fd5b506101f46004803603810190808035600019169060200190929190505050610784565b604051808215151515815260200191505060405180910390f35b34801561021a57600080fd5b50610259600480360381019080803573ffffffffffffffffffffffffffffffffffffffff169060200190929190803590602001909291905050506107f3565b604051808215151515815260200191505060405180910390f35b34801561027f57600080fd5b506102b4600480360381019080803573ffffffffffffffffffffffffffffffffffffffff1690602001909291905050506108ef565b6040518082815260200191505060405180910390f35b3480156102d657600080fd5b506102f560048036038101908080359060200190929190505050610938565b005b34801561030357600080fd5b5061030c61099d565b6040518080602001828103825283818151815260200191508051906020019080838360005b8381101561034c578082015181840152602081019050610331565b50505050905090810190601f1680156103795780820380516001836020036101000a031916815260200191505b509250505060405180910390f35b34801561039357600080fd5b506103b66004803603810190808035600019169060200190929190505050610a3b565b604051808215151515815260200191505060405180910390f35b3480156103dc57600080fd5b50610437600480360381019080803590602001908201803590602001908080601f0160208091040260200160405190810160405280939291908181526020018383808284378201915050505050509192919290505050610ad5565b604051808215151515815260200191505060405180910390f35b610459610c10565b6040518082815260200191505060405180910390f35b34801561047b57600080fd5b5061049e6004803603810190808035600019169060200190929190505050610cc4565b604051808215151515815260200191505060405180910390f35b60018054600181600116156101000203166002900480601f01602080910402602001604051908101604052809291908181526020018280546001816001161561010002031660029004801561054e5780601f106105235761010080835404028352916020019161054e565b820191906000526020600020905b81548152906001019060200180831161053157829003601f168201915b505050505081565b600080600560003373ffffffffffffffffffffffffffffffffffffffff1673ffffffffffffffffffffffffffffffffffffffff168152602001908152602001600020541115156105a557600080fd5b60046000836000191660001916815260200190815260200160002060009054906101000a900460ff1615156105d957600080fd5b6001600660003373ffffffffffffffffffffffffffffffffffffffff1673ffffffffffffffffffffffffffffffffffffffff1681526020019081526020016000206000846000191660001916815260200190815260200160002060006101000a81548160ff02191690831515021790555061069d6001600560003373ffffffffffffffffffffffffffffffffffffffff1673ffffffffffffffffffffffffffffffffffffffff16815260200190815260200160002054610cf690919063ffffffff16565b600560003373ffffffffffffffffffffffffffffffffffffffff1673ffffffffffffffffffffffffffffffffffffffff168152602001908152602001600020819055507f8a9f3255cddc850449bf9ad701e327d4f9d22498d7c2d28db9d5ee125a7496f060405160405180910390a160019050919050565b6000809054906101000a900473ffffffffffffffffffffffffffffffffffffffff1673ffffffffffffffffffffffffffffffffffffffff163373ffffffffffffffffffffffffffffffffffffffff1614151561077057600080fd5b670de0b6b3a7640000810260038190555050565b6000600660003373ffffffffffffffffffffffffffffffffffffffff1673ffffffffffffffffffffffffffffffffffffffff1681526020019081526020016000206000836000191660001916815260200190815260200160002060009054906101000a900460ff169050919050565b60008060009054906101000a900473ffffffffffffffffffffffffffffffffffffffff1673ffffffffffffffffffffffffffffffffffffffff163373ffffffffffffffffffffffffffffffffffffffff1614151561085057600080fd5b6108a282600560008673ffffffffffffffffffffffffffffffffffffffff1673ffffffffffffffffffffffffffffffffffffffff16815260200190815260200160002054610d1290919063ffffffff16565b600560008573ffffffffffffffffffffffffffffffffffffffff1673ffffffffffffffffffffffffffffffffffffffff168152602001908152602001600020819055506001905092915050565b6000600560008373ffffffffffffffffffffffffffffffffffffffff1673ffffffffffffffffffffffffffffffffffffffff168152602001908152602001600020549050919050565b6000809054906101000a900473ffffffffffffffffffffffffffffffffffffffff1673ffffffffffffffffffffffffffffffffffffffff163373ffffffffffffffffffffffffffffffffffffffff1614151561099357600080fd5b8060038190555050565b60028054600181600116156101000203166002900480601f016020809104026020016040519081016040528092919081815260200182805460018160011615610100020316600290048015610a335780601f10610a0857610100808354040283529160200191610a33565b820191906000526020600020905b815481529060010190602001808311610a1657829003601f168201915b505050505081565b60008060009054906101000a900473ffffffffffffffffffffffffffffffffffffffff1673ffffffffffffffffffffffffffffffffffffffff163373ffffffffffffffffffffffffffffffffffffffff16141515610a9857600080fd5b600160046000846000191660001916815260200190815260200160002060006101000a81548160ff02191690831515021790555060019050919050565b60008060009054906101000a900473ffffffffffffffffffffffffffffffffffffffff1673ffffffffffffffffffffffffffffffffffffffff163373ffffffffffffffffffffffffffffffffffffffff16141515610b3257600080fd5b6001600460006002856040518082805190602001908083835b602083101515610b705780518252602082019150602081019050602083039250610b4b565b6001836020036101000a0380198251168184511680821785525050505050509050019150506020604051808303816000865af1158015610bb4573d6000803e3d6000fd5b5050506040513d6020811015610bc957600080fd5b81019080805190602001909291905050506000191660001916815260200190815260200160002060006101000a81548160ff02191690831515021790555060019050919050565b6000610c2760035434610d2e90919063ffffffff16565b9050610c7b81600560003373ffffffffffffffffffffffffffffffffffffffff1673ffffffffffffffffffffffffffffffffffffffff16815260200190815260200160002054610d1290919063ffffffff16565b600560003373ffffffffffffffffffffffffffffffffffffffff1673ffffffffffffffffffffffffffffffffffffffff1681526020019081526020016000208190555080905090565b600060046000836000191660001916815260200190815260200160002060009054906101000a900460ff169050919050565b6000828211151515610d0757600080fd5b818303905092915050565b60008183019050828110151515610d2857600080fd5b92915050565b60008082111515610d3e57600080fd5b8183811515610d4957fe5b049050929150505600a165627a7a7230582086fe539ed653836f3e93f99808bd2e0ba9c11820c7ae90c71b51b95bd8aa35450029",
  "source": "pragma solidity ^0.4.23;\n\nlibrary SafeMath\n{\n    function add(uint a, uint b) internal pure returns (uint c)\n    {\n        c = a + b;\n        require(c >= a);\n    }\n    function sub(uint a, uint b) internal pure returns (uint c)\n    {\n        require(b <= a);\n        c = a - b;\n    }\n    function mul(uint a, uint b) internal pure returns (uint c)\n    {\n        c = a * b;\n        require(a == 0 || c / a == b);\n    }\n    function div(uint a, uint b) internal pure returns (uint c)\n    {\n        require(b > 0);\n        c = a / b;\n    }\n}\n\ncontract InnovationDay\n{\n    address admin;\n    string public name;\n    string public symbol;\n    uint256 price;\n    mapping(bytes32 => bool) allowedCodes;\n    mapping(address => uint) balances;\n    mapping(address => mapping(bytes32 => bool)) usedCodes;\n\n    using SafeMath for uint;\n\n    modifier onlyAdmin()\n    {\n        require(msg.sender == admin);\n        _;\n    }\n\n    constructor() public\n    {\n        admin = msg.sender;\n        name = \"INNOVATION\";\n        symbol = \"INN\";\n        //price = 1 ether;\n        emit ContractDeployed();\n    }\n\n    // administration\n    function allowCode(string code) public onlyAdmin returns (bool success)\n    {\n        allowedCodes[sha256(code)] = true;\n        return true;\n    }\n\n    function allowHashedCode(bytes32 hashedcode) public onlyAdmin returns (bool success)\n    {\n        allowedCodes[hashedcode] = true;\n        return true;\n    }\n\n    function allowedCode(bytes32 hashedcode) public view returns (bool success)\n    {\n        return allowedCodes[hashedcode];\n    }\n\n    function addTokens(address tokenOwner, uint tokens) public onlyAdmin returns (bool success)\n    {\n        balances[tokenOwner] = balances[tokenOwner].add(tokens);\n        return true;\n    }\n\n    function setPrice(uint256 _price) public onlyAdmin\n    {\n        // One Ether is 1000000000000000000 wei\n        price = _price;\n    }\n\n    function setPriceInEther(uint256 _price) public onlyAdmin\n    {\n        // One Ether is 1000000000000000000 wei\n        price = _price * 1 ether;\n    }\n\n    // user functions\n    function buyToken() public payable returns(uint amount)\n    {\n        amount = msg.value.div(price);\n        balances[msg.sender] = balances[msg.sender].add(amount);\n        return amount;\n    }\n\n    function spendToken(bytes32 hashedcode) public returns (bool success)\n    {\n        require(balances[msg.sender]>0);\n        require(allowedCodes[hashedcode]);\n        // require(usedCodes[msg.sender][hashedcode] == false);\n        usedCodes[msg.sender][hashedcode] = true;\n        balances[msg.sender] = balances[msg.sender].sub(1);\n        emit TokenSpent();\n        return true;\n    }\n\n    function codeUsedByUser(bytes32 hashedcode) public view returns (bool used)\n    {\n        return usedCodes[msg.sender][hashedcode];\n    }\n\n    function balanceOf(address tokenOwner) public view returns (uint balance)\n    {\n        return balances[tokenOwner];\n    }\n\n    event ContractDeployed();\n    event TokenSpent();\n}\n",
  "sourcePath": "/home/ubuntu/innovation_day_token/contracts/InnovationDay.sol",
  "compiler": {
    "name": "solc",
    "version": "0.4.23+commit.124ca40d.Emscripten.clang"
  },
  "schemaVersion": "2.0.0",
  "updatedAt": "2018-05-18T07:57:36.900Z"
}