{
  "contractName": "InnovationDay",
  "abi": [
    {
      "constant": true,
      "inputs": [],
      "name": "name",
      "outputs": [
        {
          "name": "",
          "type": "string"
        }
      ],
      "payable": false,
      "stateMutability": "view",
      "type": "function"
    },
    {
      "constant": true,
      "inputs": [],
      "name": "symbol",
      "outputs": [
        {
          "name": "",
          "type": "string"
        }
      ],
      "payable": false,
      "stateMutability": "view",
      "type": "function"
    },
    {
      "inputs": [],
      "payable": false,
      "stateMutability": "nonpayable",
      "type": "constructor"
    },
    {
      "anonymous": false,
      "inputs": [],
      "name": "ContractDeployed",
      "type": "event"
    },
    {
      "anonymous": false,
      "inputs": [
        {
          "indexed": false,
          "name": "data",
          "type": "string"
        }
      ],
      "name": "TokenSpent",
      "type": "event"
    },
    {
      "anonymous": false,
      "inputs": [
        {
          "indexed": false,
          "name": "addr",
          "type": "address"
        },
        {
          "indexed": false,
          "name": "nick",
          "type": "string"
        }
      ],
      "name": "initialClaim",
      "type": "event"
    },
    {
      "constant": false,
      "inputs": [
        {
          "name": "code",
          "type": "string"
        }
      ],
      "name": "allowCode",
      "outputs": [
        {
          "name": "success",
          "type": "bool"
        }
      ],
      "payable": false,
      "stateMutability": "nonpayable",
      "type": "function"
    },
    {
      "constant": false,
      "inputs": [
        {
          "name": "hashedcode",
          "type": "bytes32"
        }
      ],
      "name": "allowHashedCode",
      "outputs": [
        {
          "name": "success",
          "type": "bool"
        }
      ],
      "payable": false,
      "stateMutability": "nonpayable",
      "type": "function"
    },
    {
      "constant": true,
      "inputs": [
        {
          "name": "hashedcode",
          "type": "bytes32"
        }
      ],
      "name": "allowedCode",
      "outputs": [
        {
          "name": "success",
          "type": "bool"
        }
      ],
      "payable": false,
      "stateMutability": "view",
      "type": "function"
    },
    {
      "constant": false,
      "inputs": [
        {
          "name": "tokenOwner",
          "type": "address"
        },
        {
          "name": "tokens",
          "type": "uint256"
        }
      ],
      "name": "addTokens",
      "outputs": [
        {
          "name": "success",
          "type": "bool"
        }
      ],
      "payable": false,
      "stateMutability": "nonpayable",
      "type": "function"
    },
    {
      "constant": false,
      "inputs": [
        {
          "name": "_price",
          "type": "uint256"
        }
      ],
      "name": "setPrice",
      "outputs": [],
      "payable": false,
      "stateMutability": "nonpayable",
      "type": "function"
    },
    {
      "constant": false,
      "inputs": [
        {
          "name": "_price",
          "type": "uint256"
        }
      ],
      "name": "setPriceInEther",
      "outputs": [],
      "payable": false,
      "stateMutability": "nonpayable",
      "type": "function"
    },
    {
      "constant": false,
      "inputs": [
        {
          "name": "addr",
          "type": "address"
        },
        {
          "name": "data",
          "type": "string"
        }
      ],
      "name": "spendToken",
      "outputs": [
        {
          "name": "success",
          "type": "bool"
        }
      ],
      "payable": false,
      "stateMutability": "nonpayable",
      "type": "function"
    },
    {
      "constant": false,
      "inputs": [
        {
          "name": "addr",
          "type": "address"
        }
      ],
      "name": "spendToken",
      "outputs": [
        {
          "name": "success",
          "type": "bool"
        }
      ],
      "payable": false,
      "stateMutability": "nonpayable",
      "type": "function"
    },
    {
      "constant": true,
      "inputs": [
        {
          "name": "hashedcode",
          "type": "bytes32"
        }
      ],
      "name": "codeUsedByUser",
      "outputs": [
        {
          "name": "used",
          "type": "bool"
        }
      ],
      "payable": false,
      "stateMutability": "view",
      "type": "function"
    },
    {
      "constant": true,
      "inputs": [
        {
          "name": "tokenOwner",
          "type": "address"
        }
      ],
      "name": "balanceOf",
      "outputs": [
        {
          "name": "balance",
          "type": "uint256"
        }
      ],
      "payable": false,
      "stateMutability": "view",
      "type": "function"
    },
    {
      "constant": false,
      "inputs": [
        {
          "name": "nick",
          "type": "string"
        }
      ],
      "name": "autoclaim",
      "outputs": [],
      "payable": false,
      "stateMutability": "nonpayable",
      "type": "function"
    },
    {
      "constant": true,
      "inputs": [
        {
          "name": "addr",
          "type": "address"
        }
      ],
      "name": "isRegistered",
      "outputs": [
        {
          "name": "userRegistered",
          "type": "bool"
        }
      ],
      "payable": false,
      "stateMutability": "view",
      "type": "function"
    }
  ],
  "bytecode": "0x60806040523480156200001157600080fd5b50336000806101000a81548173ffffffffffffffffffffffffffffffffffffffff021916908373ffffffffffffffffffffffffffffffffffffffff1602179055506040805190810160405280600a81526020017f494e4e4f564154494f4e00000000000000000000000000000000000000000000815250600190805190602001906200009f92919062000128565b506040805190810160405280600381526020017f494e4e000000000000000000000000000000000000000000000000000000000081525060029080519060200190620000ed92919062000128565b50600a6004819055507fdaf2a119a79dac8445fdc10627116c03f4b0ffb5cf1aee5223ac18a7453e631f60405160405180910390a1620001d7565b828054600181600116156101000203166002900490600052602060002090601f016020900481019282601f106200016b57805160ff19168380011785556200019c565b828001600101855582156200019c579182015b828111156200019b5782518255916020019190600101906200017e565b5b509050620001ab9190620001af565b5090565b620001d491905b80821115620001d0576000816000905550600101620001b6565b5090565b90565b6110c080620001e76000396000f3006080604052600436106100d0576000357c0100000000000000000000000000000000000000000000000000000000900463ffffffff16806306fdde03146100d55780630a62ea261461016557806342fa5b3a146102065780635fd11c76146102335780636039fbdb1461027c57806370a08231146102e15780637ed29d9f1461033857806391b7f5ed1461039357806395d89b41146103c05780639c81e15c14610450578063a03e29dc14610499578063b78d9c131461051a578063bc67c20a14610563578063c3c5a547146105cc575b600080fd5b3480156100e157600080fd5b506100ea610627565b6040518080602001828103825283818151815260200191508051906020019080838360005b8381101561012a57808201518184015260208101905061010f565b50505050905090810190601f1680156101575780820380516001836020036101000a031916815260200191505b509250505060405180910390f35b34801561017157600080fd5b506101ec600480360381019080803573ffffffffffffffffffffffffffffffffffffffff169060200190929190803590602001908201803590602001908080601f01602080910402602001604051908101604052809392919081815260200183838082843782019150505050505091929192905050506106c5565b604051808215151515815260200191505060405180910390f35b34801561021257600080fd5b5061023160048036038101908080359060200190929190505050610785565b005b34801561023f57600080fd5b5061026260048036038101908080356000191690602001909291905050506107f4565b604051808215151515815260200191505060405180910390f35b34801561028857600080fd5b506102c7600480360381019080803573ffffffffffffffffffffffffffffffffffffffff16906020019092919080359060200190929190505050610863565b604051808215151515815260200191505060405180910390f35b3480156102ed57600080fd5b50610322600480360381019080803573ffffffffffffffffffffffffffffffffffffffff16906020019092919050505061095f565b6040518082815260200191505060405180910390f35b34801561034457600080fd5b50610379600480360381019080803573ffffffffffffffffffffffffffffffffffffffff1690602001909291905050506109a8565b604051808215151515815260200191505060405180910390f35b34801561039f57600080fd5b506103be60048036038101908080359060200190929190505050610b2c565b005b3480156103cc57600080fd5b506103d5610b91565b6040518080602001828103825283818151815260200191508051906020019080838360005b838110156104155780820151818401526020810190506103fa565b50505050905090810190601f1680156104425780820380516001836020036101000a031916815260200191505b509250505060405180910390f35b34801561045c57600080fd5b5061047f6004803603810190808035600019169060200190929190505050610c2f565b604051808215151515815260200191505060405180910390f35b3480156104a557600080fd5b50610500600480360381019080803590602001908201803590602001908080601f0160208091040260200160405190810160405280939291908181526020018383808284378201915050505050509192919290505050610cc9565b604051808215151515815260200191505060405180910390f35b34801561052657600080fd5b506105496004803603810190808035600019169060200190929190505050610e04565b604051808215151515815260200191505060405180910390f35b34801561056f57600080fd5b506105ca600480360381019080803590602001908201803590602001908080601f0160208091040260200160405190810160405280939291908181526020018383808284378201915050505050509192919290505050610e36565b005b3480156105d857600080fd5b5061060d600480360381019080803573ffffffffffffffffffffffffffffffffffffffff169060200190929190505050611006565b604051808215151515815260200191505060405180910390f35b60018054600181600116156101000203166002900480601f0160208091040260200160405190810160405280929190818152602001828054600181600116156101000203166002900480156106bd5780601f10610692576101008083540402835291602001916106bd565b820191906000526020600020905b8154815290600101906020018083116106a057829003601f168201915b505050505081565b60006106d0836109a8565b1561077a577f378dadf494acb57edd661d56c0fdf6d2b0fa8971b61a997414e9c5fd339604f4826040518080602001828103825283818151815260200191508051906020019080838360005b8381101561073757808201518184015260208101905061071c565b50505050905090810190601f1680156107645780820380516001836020036101000a031916815260200191505b509250505060405180910390a16001905061077f565b600090505b92915050565b6000809054906101000a900473ffffffffffffffffffffffffffffffffffffffff1673ffffffffffffffffffffffffffffffffffffffff163373ffffffffffffffffffffffffffffffffffffffff161415156107e057600080fd5b670de0b6b3a7640000810260038190555050565b6000600860003373ffffffffffffffffffffffffffffffffffffffff1673ffffffffffffffffffffffffffffffffffffffff1681526020019081526020016000206000836000191660001916815260200190815260200160002060009054906101000a900460ff169050919050565b60008060009054906101000a900473ffffffffffffffffffffffffffffffffffffffff1673ffffffffffffffffffffffffffffffffffffffff163373ffffffffffffffffffffffffffffffffffffffff161415156108c057600080fd5b61091282600760008673ffffffffffffffffffffffffffffffffffffffff1673ffffffffffffffffffffffffffffffffffffffff1681526020019081526020016000205461105c90919063ffffffff16565b600760008573ffffffffffffffffffffffffffffffffffffffff1673ffffffffffffffffffffffffffffffffffffffff168152602001908152602001600020819055506001905092915050565b6000600760008373ffffffffffffffffffffffffffffffffffffffff1673ffffffffffffffffffffffffffffffffffffffff168152602001908152602001600020549050919050565b600080600760003373ffffffffffffffffffffffffffffffffffffffff1673ffffffffffffffffffffffffffffffffffffffff168152602001908152602001600020541115156109f757600080fd5b610a4a6001600760003373ffffffffffffffffffffffffffffffffffffffff1673ffffffffffffffffffffffffffffffffffffffff1681526020019081526020016000205461107890919063ffffffff16565b600760003373ffffffffffffffffffffffffffffffffffffffff1673ffffffffffffffffffffffffffffffffffffffff16815260200190815260200160002081905550610ae06001600760008573ffffffffffffffffffffffffffffffffffffffff1673ffffffffffffffffffffffffffffffffffffffff1681526020019081526020016000205461105c90919063ffffffff16565b600760008473ffffffffffffffffffffffffffffffffffffffff1673ffffffffffffffffffffffffffffffffffffffff1681526020019081526020016000208190555060019050919050565b6000809054906101000a900473ffffffffffffffffffffffffffffffffffffffff1673ffffffffffffffffffffffffffffffffffffffff163373ffffffffffffffffffffffffffffffffffffffff16141515610b8757600080fd5b8060038190555050565b60028054600181600116156101000203166002900480601f016020809104026020016040519081016040528092919081815260200182805460018160011615610100020316600290048015610c275780601f10610bfc57610100808354040283529160200191610c27565b820191906000526020600020905b815481529060010190602001808311610c0a57829003601f168201915b505050505081565b60008060009054906101000a900473ffffffffffffffffffffffffffffffffffffffff1673ffffffffffffffffffffffffffffffffffffffff163373ffffffffffffffffffffffffffffffffffffffff16141515610c8c57600080fd5b600160056000846000191660001916815260200190815260200160002060006101000a81548160ff02191690831515021790555060019050919050565b60008060009054906101000a900473ffffffffffffffffffffffffffffffffffffffff1673ffffffffffffffffffffffffffffffffffffffff163373ffffffffffffffffffffffffffffffffffffffff16141515610d2657600080fd5b6001600560006002856040518082805190602001908083835b602083101515610d645780518252602082019150602081019050602083039250610d3f565b6001836020036101000a0380198251168184511680821785525050505050509050019150506020604051808303816000865af1158015610da8573d6000803e3d6000fd5b5050506040513d6020811015610dbd57600080fd5b81019080805190602001909291905050506000191660001916815260200190815260200160002060006101000a81548160ff02191690831515021790555060019050919050565b600060056000836000191660001916815260200190815260200160002060009054906101000a900460ff169050919050565b60001515600660003373ffffffffffffffffffffffffffffffffffffffff1673ffffffffffffffffffffffffffffffffffffffff16815260200190815260200160002060009054906101000a900460ff161515141515610e9557600080fd5b6001600660003373ffffffffffffffffffffffffffffffffffffffff1673ffffffffffffffffffffffffffffffffffffffff16815260200190815260200160002060006101000a81548160ff021916908315150217905550600454600760003373ffffffffffffffffffffffffffffffffffffffff1673ffffffffffffffffffffffffffffffffffffffff168152602001908152602001600020819055507fbe24850c851d3c5b865c977f347df7b19a67a85968ac50cd2b69b33f08dad8753382604051808373ffffffffffffffffffffffffffffffffffffffff1673ffffffffffffffffffffffffffffffffffffffff16815260200180602001828103825283818151815260200191508051906020019080838360005b83811015610fc8578082015181840152602081019050610fad565b50505050905090810190601f168015610ff55780820380516001836020036101000a031916815260200191505b50935050505060405180910390a150565b6000600660008373ffffffffffffffffffffffffffffffffffffffff1673ffffffffffffffffffffffffffffffffffffffff16815260200190815260200160002060009054906101000a900460ff169050919050565b6000818301905082811015151561107257600080fd5b92915050565b600082821115151561108957600080fd5b8183039050929150505600a165627a7a7230582074d0311e2432144655d6a56a6c3b93e6a793dae05792d70c99eec72189c24edb0029",
  "source": "pragma solidity ^0.4.23;\n\nlibrary SafeMath\n{\n    function add(uint a, uint b) internal pure returns (uint c)\n    {\n        c = a + b;\n        require(c >= a);\n    }\n    function sub(uint a, uint b) internal pure returns (uint c)\n    {\n        require(b <= a);\n        c = a - b;\n    }\n    function mul(uint a, uint b) internal pure returns (uint c)\n    {\n        c = a * b;\n        require(a == 0 || c / a == b);\n    }\n    function div(uint a, uint b) internal pure returns (uint c)\n    {\n        require(b > 0);\n        c = a / b;\n    }\n}\n\ncontract InnovationDay\n{\n    address admin;\n    string public name;\n    string public symbol;\n    uint256 price;\n    uint256 initialValue;\n    mapping(bytes32 => bool) allowedCodes;\n    mapping(address => bool) registered;\n    mapping(address => uint) balances;\n    mapping(address => mapping(bytes32 => bool)) usedCodes;\n\n    using SafeMath for uint;\n\n    modifier onlyAdmin()\n    {\n        require(msg.sender == admin);\n        _;\n    }\n\n    constructor() public\n    {\n        admin = msg.sender;\n        name = \"INNOVATION\";\n        symbol = \"INN\";\n        initialValue = 10;\n        //price = 1 ether;\n        emit ContractDeployed();\n    }\n\n    // administration\n    function allowCode(string code) public onlyAdmin returns (bool success)\n    {\n        allowedCodes[sha256(code)] = true;\n        return true;\n    }\n\n    function allowHashedCode(bytes32 hashedcode) public onlyAdmin returns (bool success)\n    {\n        allowedCodes[hashedcode] = true;\n        return true;\n    }\n\n    function allowedCode(bytes32 hashedcode) public view returns (bool success)\n    {\n        return allowedCodes[hashedcode];\n    }\n\n    function addTokens(address tokenOwner, uint tokens) public onlyAdmin returns (bool success)\n    {\n        balances[tokenOwner] = balances[tokenOwner].add(tokens);\n        return true;\n    }\n\n    function setPrice(uint256 _price) public onlyAdmin\n    {\n        // One Ether is 1000000000000000000 wei\n        price = _price;\n    }\n\n    function setPriceInEther(uint256 _price) public onlyAdmin\n    {\n        // One Ether is 1000000000000000000 wei\n        price = _price * 1 ether;\n    }\n\n    // user functions\n\n    function spendToken(address addr) public returns (bool success)\n    {\n        require(balances[msg.sender]>0);\n        balances[msg.sender] = balances[msg.sender].sub(1);\n        balances[addr] = balances[addr].add(1);\n        return true;\n    }\n\n    function spendToken(address addr, string data) public returns (bool success)\n    {\n        if(spendToken(addr)){\n            emit TokenSpent(data);\n            return true;\n        }\n        return false;\n    }\n\n    function codeUsedByUser(bytes32 hashedcode) public view returns (bool used)\n    {\n        return usedCodes[msg.sender][hashedcode];\n    }\n\n    function balanceOf(address tokenOwner) public view returns (uint balance)\n    {\n        return balances[tokenOwner];\n    }\n\n\n    function autoclaim(string nick) public {\n        require(registered[msg.sender]==false);\n        registered[msg.sender]=true;\n        balances[msg.sender]=initialValue;\n        emit initialClaim(msg.sender, nick);\n    }\n\n    function isRegistered(address addr) public view returns (bool userRegistered){\n        return registered[addr];\n    }\n\n    event ContractDeployed();\n    event TokenSpent(string data);\n    event initialClaim(address addr, string nick);\n}\n",
  "sourcePath": "/home/ubuntu/innovation_day_token/contracts/InnovationDay.sol",
  "compiler": {
    "name": "solc",
    "version": "0.4.24+commit.e67f0147.Emscripten.clang"
  },
  "schemaVersion": "2.0.0",
  "updatedAt": "2018-05-25T07:18:43.649Z"
}