{
  "contractName": "InnovationDay",
  "abi": [
    {
      "constant": true,
      "inputs": [],
      "name": "name",
      "outputs": [
        {
          "name": "",
          "type": "string"
        }
      ],
      "payable": false,
      "stateMutability": "view",
      "type": "function"
    },
    {
      "constant": true,
      "inputs": [],
      "name": "symbol",
      "outputs": [
        {
          "name": "",
          "type": "string"
        }
      ],
      "payable": false,
      "stateMutability": "view",
      "type": "function"
    },
    {
      "inputs": [],
      "payable": false,
      "stateMutability": "nonpayable",
      "type": "constructor"
    },
    {
      "anonymous": false,
      "inputs": [],
      "name": "ContractDeployed",
      "type": "event"
    },
    {
      "anonymous": false,
      "inputs": [
        {
          "indexed": false,
          "name": "data",
          "type": "string"
        }
      ],
      "name": "TokenSpent",
      "type": "event"
    },
    {
      "constant": false,
      "inputs": [
        {
          "name": "code",
          "type": "string"
        }
      ],
      "name": "allowCode",
      "outputs": [
        {
          "name": "success",
          "type": "bool"
        }
      ],
      "payable": false,
      "stateMutability": "nonpayable",
      "type": "function"
    },
    {
      "constant": false,
      "inputs": [
        {
          "name": "hashedcode",
          "type": "bytes32"
        }
      ],
      "name": "allowHashedCode",
      "outputs": [
        {
          "name": "success",
          "type": "bool"
        }
      ],
      "payable": false,
      "stateMutability": "nonpayable",
      "type": "function"
    },
    {
      "constant": true,
      "inputs": [
        {
          "name": "hashedcode",
          "type": "bytes32"
        }
      ],
      "name": "allowedCode",
      "outputs": [
        {
          "name": "success",
          "type": "bool"
        }
      ],
      "payable": false,
      "stateMutability": "view",
      "type": "function"
    },
    {
      "constant": false,
      "inputs": [
        {
          "name": "tokenOwner",
          "type": "address"
        },
        {
          "name": "tokens",
          "type": "uint256"
        }
      ],
      "name": "addTokens",
      "outputs": [
        {
          "name": "success",
          "type": "bool"
        }
      ],
      "payable": false,
      "stateMutability": "nonpayable",
      "type": "function"
    },
    {
      "constant": false,
      "inputs": [
        {
          "name": "_price",
          "type": "uint256"
        }
      ],
      "name": "setPrice",
      "outputs": [],
      "payable": false,
      "stateMutability": "nonpayable",
      "type": "function"
    },
    {
      "constant": false,
      "inputs": [
        {
          "name": "_price",
          "type": "uint256"
        }
      ],
      "name": "setPriceInEther",
      "outputs": [],
      "payable": false,
      "stateMutability": "nonpayable",
      "type": "function"
    },
    {
      "constant": false,
      "inputs": [],
      "name": "buyToken",
      "outputs": [
        {
          "name": "amount",
          "type": "uint256"
        }
      ],
      "payable": true,
      "stateMutability": "payable",
      "type": "function"
    },
    {
      "constant": false,
      "inputs": [
        {
          "name": "hashedcode",
          "type": "bytes32"
        }
      ],
      "name": "spendToken",
      "outputs": [
        {
          "name": "success",
          "type": "bool"
        }
      ],
      "payable": false,
      "stateMutability": "nonpayable",
      "type": "function"
    },
    {
      "constant": false,
      "inputs": [
        {
          "name": "hashedcode",
          "type": "bytes32"
        },
        {
          "name": "data",
          "type": "string"
        }
      ],
      "name": "spendToken",
      "outputs": [
        {
          "name": "success",
          "type": "bool"
        }
      ],
      "payable": false,
      "stateMutability": "nonpayable",
      "type": "function"
    },
    {
      "constant": true,
      "inputs": [
        {
          "name": "hashedcode",
          "type": "bytes32"
        }
      ],
      "name": "codeUsedByUser",
      "outputs": [
        {
          "name": "used",
          "type": "bool"
        }
      ],
      "payable": false,
      "stateMutability": "view",
      "type": "function"
    },
    {
      "constant": true,
      "inputs": [
        {
          "name": "tokenOwner",
          "type": "address"
        }
      ],
      "name": "balanceOf",
      "outputs": [
        {
          "name": "balance",
          "type": "uint256"
        }
      ],
      "payable": false,
      "stateMutability": "view",
      "type": "function"
    }
  ],
  "bytecode": "0x60806040523480156200001157600080fd5b50336000806101000a81548173ffffffffffffffffffffffffffffffffffffffff021916908373ffffffffffffffffffffffffffffffffffffffff1602179055506040805190810160405280600a81526020017f494e4e4f564154494f4e00000000000000000000000000000000000000000000815250600190805190602001906200009f92919062000120565b506040805190810160405280600381526020017f494e4e000000000000000000000000000000000000000000000000000000000081525060029080519060200190620000ed92919062000120565b507fdaf2a119a79dac8445fdc10627116c03f4b0ffb5cf1aee5223ac18a7453e631f60405160405180910390a1620001cf565b828054600181600116156101000203166002900490600052602060002090601f016020900481019282601f106200016357805160ff191683800117855562000194565b8280016001018555821562000194579182015b828111156200019357825182559160200191906001019062000176565b5b509050620001a39190620001a7565b5090565b620001cc91905b80821115620001c8576000816000905550600101620001ae565b5090565b90565b61105f80620001df6000396000f3006080604052600436106100c5576000357c0100000000000000000000000000000000000000000000000000000000900463ffffffff16806306fdde03146100ca5780631c701c301461015a5780631d8f3c85146101e957806342fa5b3a146102325780635fd11c761461025f5780636039fbdb146102a857806370a082311461030d57806391b7f5ed1461036457806395d89b41146103915780639c81e15c14610421578063a03e29dc1461046a578063a4821719146104eb578063b78d9c1314610509575b600080fd5b3480156100d657600080fd5b506100df610552565b6040518080602001828103825283818151815260200191508051906020019080838360005b8381101561011f578082015181840152602081019050610104565b50505050905090810190601f16801561014c5780820380516001836020036101000a031916815260200191505b509250505060405180910390f35b34801561016657600080fd5b506101cf6004803603810190808035600019169060200190929190803590602001908201803590602001908080601f01602080910402602001604051908101604052809392919081815260200183838082843782019150505050505091929192905050506105f0565b604051808215151515815260200191505060405180910390f35b3480156101f557600080fd5b506102186004803603810190808035600019169060200190929190505050610820565b604051808215151515815260200191505060405180910390f35b34801561023e57600080fd5b5061025d600480360381019080803590602001909291905050506109f6565b005b34801561026b57600080fd5b5061028e6004803603810190808035600019169060200190929190505050610a65565b604051808215151515815260200191505060405180910390f35b3480156102b457600080fd5b506102f3600480360381019080803573ffffffffffffffffffffffffffffffffffffffff16906020019092919080359060200190929190505050610ad4565b604051808215151515815260200191505060405180910390f35b34801561031957600080fd5b5061034e600480360381019080803573ffffffffffffffffffffffffffffffffffffffff169060200190929190505050610bd0565b6040518082815260200191505060405180910390f35b34801561037057600080fd5b5061038f60048036038101908080359060200190929190505050610c19565b005b34801561039d57600080fd5b506103a6610c7e565b6040518080602001828103825283818151815260200191508051906020019080838360005b838110156103e65780820151818401526020810190506103cb565b50505050905090810190601f1680156104135780820380516001836020036101000a031916815260200191505b509250505060405180910390f35b34801561042d57600080fd5b506104506004803603810190808035600019169060200190929190505050610d1c565b604051808215151515815260200191505060405180910390f35b34801561047657600080fd5b506104d1600480360381019080803590602001908201803590602001908080601f0160208091040260200160405190810160405280939291908181526020018383808284378201915050505050509192919290505050610db6565b604051808215151515815260200191505060405180910390f35b6104f3610ef1565b6040518082815260200191505060405180910390f35b34801561051557600080fd5b506105386004803603810190808035600019169060200190929190505050610fa5565b604051808215151515815260200191505060405180910390f35b60018054600181600116156101000203166002900480601f0160208091040260200160405190810160405280929190818152602001828054600181600116156101000203166002900480156105e85780601f106105bd576101008083540402835291602001916105e8565b820191906000526020600020905b8154815290600101906020018083116105cb57829003601f168201915b505050505081565b600080600560003373ffffffffffffffffffffffffffffffffffffffff1673ffffffffffffffffffffffffffffffffffffffff1681526020019081526020016000205411151561063f57600080fd5b60046000846000191660001916815260200190815260200160002060009054906101000a900460ff16151561067357600080fd5b6001600660003373ffffffffffffffffffffffffffffffffffffffff1673ffffffffffffffffffffffffffffffffffffffff1681526020019081526020016000206000856000191660001916815260200190815260200160002060006101000a81548160ff0219169083151502179055506107376001600560003373ffffffffffffffffffffffffffffffffffffffff1673ffffffffffffffffffffffffffffffffffffffff16815260200190815260200160002054610fd790919063ffffffff16565b600560003373ffffffffffffffffffffffffffffffffffffffff1673ffffffffffffffffffffffffffffffffffffffff168152602001908152602001600020819055507f378dadf494acb57edd661d56c0fdf6d2b0fa8971b61a997414e9c5fd339604f4826040518080602001828103825283818151815260200191508051906020019080838360005b838110156107dc5780820151818401526020810190506107c1565b50505050905090810190601f1680156108095780820380516001836020036101000a031916815260200191505b509250505060405180910390a16001905092915050565b600080600560003373ffffffffffffffffffffffffffffffffffffffff1673ffffffffffffffffffffffffffffffffffffffff1681526020019081526020016000205411151561086f57600080fd5b60046000836000191660001916815260200190815260200160002060009054906101000a900460ff1615156108a357600080fd5b6001600660003373ffffffffffffffffffffffffffffffffffffffff1673ffffffffffffffffffffffffffffffffffffffff1681526020019081526020016000206000846000191660001916815260200190815260200160002060006101000a81548160ff0219169083151502179055506109676001600560003373ffffffffffffffffffffffffffffffffffffffff1673ffffffffffffffffffffffffffffffffffffffff16815260200190815260200160002054610fd790919063ffffffff16565b600560003373ffffffffffffffffffffffffffffffffffffffff1673ffffffffffffffffffffffffffffffffffffffff168152602001908152602001600020819055507f378dadf494acb57edd661d56c0fdf6d2b0fa8971b61a997414e9c5fd339604f4604051808060200182810382526000815260200160200191505060405180910390a160019050919050565b6000809054906101000a900473ffffffffffffffffffffffffffffffffffffffff1673ffffffffffffffffffffffffffffffffffffffff163373ffffffffffffffffffffffffffffffffffffffff16141515610a5157600080fd5b670de0b6b3a7640000810260038190555050565b6000600660003373ffffffffffffffffffffffffffffffffffffffff1673ffffffffffffffffffffffffffffffffffffffff1681526020019081526020016000206000836000191660001916815260200190815260200160002060009054906101000a900460ff169050919050565b60008060009054906101000a900473ffffffffffffffffffffffffffffffffffffffff1673ffffffffffffffffffffffffffffffffffffffff163373ffffffffffffffffffffffffffffffffffffffff16141515610b3157600080fd5b610b8382600560008673ffffffffffffffffffffffffffffffffffffffff1673ffffffffffffffffffffffffffffffffffffffff16815260200190815260200160002054610ff390919063ffffffff16565b600560008573ffffffffffffffffffffffffffffffffffffffff1673ffffffffffffffffffffffffffffffffffffffff168152602001908152602001600020819055506001905092915050565b6000600560008373ffffffffffffffffffffffffffffffffffffffff1673ffffffffffffffffffffffffffffffffffffffff168152602001908152602001600020549050919050565b6000809054906101000a900473ffffffffffffffffffffffffffffffffffffffff1673ffffffffffffffffffffffffffffffffffffffff163373ffffffffffffffffffffffffffffffffffffffff16141515610c7457600080fd5b8060038190555050565b60028054600181600116156101000203166002900480601f016020809104026020016040519081016040528092919081815260200182805460018160011615610100020316600290048015610d145780601f10610ce957610100808354040283529160200191610d14565b820191906000526020600020905b815481529060010190602001808311610cf757829003601f168201915b505050505081565b60008060009054906101000a900473ffffffffffffffffffffffffffffffffffffffff1673ffffffffffffffffffffffffffffffffffffffff163373ffffffffffffffffffffffffffffffffffffffff16141515610d7957600080fd5b600160046000846000191660001916815260200190815260200160002060006101000a81548160ff02191690831515021790555060019050919050565b60008060009054906101000a900473ffffffffffffffffffffffffffffffffffffffff1673ffffffffffffffffffffffffffffffffffffffff163373ffffffffffffffffffffffffffffffffffffffff16141515610e1357600080fd5b6001600460006002856040518082805190602001908083835b602083101515610e515780518252602082019150602081019050602083039250610e2c565b6001836020036101000a0380198251168184511680821785525050505050509050019150506020604051808303816000865af1158015610e95573d6000803e3d6000fd5b5050506040513d6020811015610eaa57600080fd5b81019080805190602001909291905050506000191660001916815260200190815260200160002060006101000a81548160ff02191690831515021790555060019050919050565b6000610f086003543461100f90919063ffffffff16565b9050610f5c81600560003373ffffffffffffffffffffffffffffffffffffffff1673ffffffffffffffffffffffffffffffffffffffff16815260200190815260200160002054610ff390919063ffffffff16565b600560003373ffffffffffffffffffffffffffffffffffffffff1673ffffffffffffffffffffffffffffffffffffffff1681526020019081526020016000208190555080905090565b600060046000836000191660001916815260200190815260200160002060009054906101000a900460ff169050919050565b6000828211151515610fe857600080fd5b818303905092915050565b6000818301905082811015151561100957600080fd5b92915050565b6000808211151561101f57600080fd5b818381151561102a57fe5b049050929150505600a165627a7a7230582061047bb28ea224344448f1fe92e40c784f381ac526a5ac14b217d3166da17f110029",
  "source": "pragma solidity ^0.4.23;\n\nlibrary SafeMath\n{\n    function add(uint a, uint b) internal pure returns (uint c)\n    {\n        c = a + b;\n        require(c >= a);\n    }\n    function sub(uint a, uint b) internal pure returns (uint c)\n    {\n        require(b <= a);\n        c = a - b;\n    }\n    function mul(uint a, uint b) internal pure returns (uint c)\n    {\n        c = a * b;\n        require(a == 0 || c / a == b);\n    }\n    function div(uint a, uint b) internal pure returns (uint c)\n    {\n        require(b > 0);\n        c = a / b;\n    }\n}\n\ncontract InnovationDay\n{\n    address admin;\n    string public name;\n    string public symbol;\n    uint256 price;\n    mapping(bytes32 => bool) allowedCodes;\n    mapping(address => uint) balances;\n    mapping(address => mapping(bytes32 => bool)) usedCodes;\n\n    using SafeMath for uint;\n\n    modifier onlyAdmin()\n    {\n        require(msg.sender == admin);\n        _;\n    }\n\n    constructor() public\n    {\n        admin = msg.sender;\n        name = \"INNOVATION\";\n        symbol = \"INN\";\n        //price = 1 ether;\n        emit ContractDeployed();\n    }\n\n    // administration\n    function allowCode(string code) public onlyAdmin returns (bool success)\n    {\n        allowedCodes[sha256(code)] = true;\n        return true;\n    }\n\n    function allowHashedCode(bytes32 hashedcode) public onlyAdmin returns (bool success)\n    {\n        allowedCodes[hashedcode] = true;\n        return true;\n    }\n\n    function allowedCode(bytes32 hashedcode) public view returns (bool success)\n    {\n        return allowedCodes[hashedcode];\n    }\n\n    function addTokens(address tokenOwner, uint tokens) public onlyAdmin returns (bool success)\n    {\n        balances[tokenOwner] = balances[tokenOwner].add(tokens);\n        return true;\n    }\n\n    function setPrice(uint256 _price) public onlyAdmin\n    {\n        // One Ether is 1000000000000000000 wei\n        price = _price;\n    }\n\n    function setPriceInEther(uint256 _price) public onlyAdmin\n    {\n        // One Ether is 1000000000000000000 wei\n        price = _price * 1 ether;\n    }\n\n    // user functions\n    function buyToken() public payable returns(uint amount)\n    {\n        amount = msg.value.div(price);\n        balances[msg.sender] = balances[msg.sender].add(amount);\n        return amount;\n    }\n\n    function spendToken(bytes32 hashedcode) public returns (bool success)\n    {\n        require(balances[msg.sender]>0);\n        require(allowedCodes[hashedcode]);\n        // require(usedCodes[msg.sender][hashedcode] == false);\n        usedCodes[msg.sender][hashedcode] = true;\n        balances[msg.sender] = balances[msg.sender].sub(1);\n        emit TokenSpent(\"\");\n        return true;\n    }\n\n    function spendToken(bytes32 hashedcode, string data) public returns (bool success)\n    {\n        require(balances[msg.sender]>0);\n        require(allowedCodes[hashedcode]);\n        // require(usedCodes[msg.sender][hashedcode] == false);\n        usedCodes[msg.sender][hashedcode] = true;\n        balances[msg.sender] = balances[msg.sender].sub(1);\n        emit TokenSpent(data);\n        return true;\n    }\n\n    function codeUsedByUser(bytes32 hashedcode) public view returns (bool used)\n    {\n        return usedCodes[msg.sender][hashedcode];\n    }\n\n    function balanceOf(address tokenOwner) public view returns (uint balance)\n    {\n        return balances[tokenOwner];\n    }\n\n    event ContractDeployed();\n    event TokenSpent(string data);\n}\n",
  "sourcePath": "/home/ubuntu/innovation_day_token/contracts/InnovationDay.sol",
  "compiler": {
    "name": "solc",
    "version": "0.4.23+commit.124ca40d.Emscripten.clang"
  },
  "schemaVersion": "2.0.0",
  "updatedAt": "2018-05-21T07:42:41.273Z"
}